:020000040800F2
:10000000D8060020E55B0008C7010008C901000808
:10001000CD010008D1010008D50100080000000052
:10002000000000000000000000000000D9010008EE
:10003000DB01000800000000DD010008C10100082C
:10004000FF5B0008FF5B0008FF5B0008FF5B000828
:10005000FF5B0008FF5B0008FF5B0008FF5B000818
:10006000FF5B0008FF5B0008FF5B0008FF5B000808
:10007000FF5B0008C3010008FF5B0008C501000822
:100080006B2F0008FF5B0008FF5B00080F260008CD
:1000900093020008FF5B0008FF5B0008FF5B00089D
:1000A000FF5B0008FF5B0008FF5B0008FF5B0008C8
:1000B000FF5B0008FF5B0008FF5B0008FF5B0008B8
:1000C000FF5B0008FF5B0008FF5B0008FF5B0008A8
:1000D000FF5B0008FF5B0008FF5B0008C32C000803
:1000E000FF5B0008FF5B0008FF5B0008FF5B000888
:1000F000FF5B0008FF5B0008FF5B0008FF5B000878
:10010000FF5B0008FF5B0008FF5B0008FF5B000867
:10011000FF5B0008FF5B0008112E0008FF5B000872
:10012000FF5B0008FF5B00083F270008FF5B00083B
:10013000FF5B0008FF5B0008FF5B0008E732000878
:1001400085030008FF5B0008FF5B0008FF5B0008F9
:10015000FF5B0008FF5B0008FF5B0008FF5B000817
:10016000FF5B0008FF5B0008FF5B0008FF5B000807
:10017000FF5B0008FF5B0008FF5B00080000000059
:10018000FF5B0008FF5B0008FF5B0008FF5B0008E7
:10019000FF5B0008FF5B0008FF5B0008FF5B0008D7
:1001A0000000000000000000FF5B0008DFF80CD03A
:1001B00006F060F80048004783070008D8060020D2
:1001C000704770477047704700BFFEE700BFFEE70B
:1001D00000BFFEE700BFFEE77047704770470000B2
:1001E00030B585B004460D4640F2FF100090002067
:1001F0008DF808008DF8090008208DF80A00280AFB
:100200008DF80B00E9B28DF80C10210A8DF80D1055
:10021000E1B28DF80E1000218DF80F108DF810103E
:100220008DF811108DF8121069469E4804F08AFB73
:1002300005B030BDF0B585B004460D4616461F46E4
:100240004FF40070009000208DF808008DF8090030
:1002500008208DF80A00200A8DF80B00E1B28DF815
:100260000C10290A8DF80D10E9B28DF80E10310A24
:100270008DF80F10F1B28DF81010390A8DF81110A9
:10028000F9B28DF812106946874804F05BFB05B09F
:10029000F0BD00B585B00221824804F0C9FD0028F8
:1002A0006ED002217F4804F05CFE6A4600217D4842
:1002B00004F03CFC0098A0F50071063948D19DF887
:1002C0000C109DF80B0001EB002000B2774908806C
:1002D000774890ED000ADFED770A30EE600A764845
:1002E000D0ED000AB4EEE00AF1EE10FA30D2704818
:1002F00090ED000ADFED6F0A30EE200A6E48D0ED77
:10030000000AB4EEE00AF1EE10FA21DD6B48B0F914
:10031000000010F52F7F05DD6848B0F90000B0F54A
:100320002F7F02DB0020654908806548007840B1D6
:1003300000F012FF5E4890ED000A5F4880ED000A71
:1003400006E001F046FA5948B0F900005D4908801E
:100350000098A0F5007105390AD19DF80C109DF8A0
:100360000B0001EB002000B25749088001F0C9F8EA
:100370005648B0F900105648B0F90000FFF730FFBA
:1003800005B000BD00B585B00221474804F050FD1E
:1003900000287DD00221444804F0E3FD6A46002194
:1003A000414804F0C3FB0098A0F50071013915D154
:1003B0009DF80E109DF80D0001EB002000B245499C
:1003C00008804548008845490988401A44490988F9
:1003D000401A00B24349088001F082FB0098A0F562
:1003E0000071023916D19DF80E109DF80D0001EB39
:1003F000002000B23C490880374800884042374915
:100400000988401A36490988401A00B237490880DD
:1004100001F0F9FC0098A0F50071033916D19DF8A0
:100420000E109DF80D0001EB002000B2304908804D
:100430002948008829490988401A29490988084417
:10044000404200B22B49088001F033FE0098B0F51D
:10045000017F15D19DF80E109DF80D0001EB0020D5
:1004600000B2254908801C4800881C4909880844B6
:100470001B490988401A00B22049088001F0A7FFF3
:100480001D48B0F900301A48B0F90020164800E0C5
:1004900006E0B0F900100F48B0F90000FFF7CAFEFF
:1004A00005B000BD0064004000680040F800002076
:1004B000280200200000204230000020F801002027
:1004C0002D00002034000020FE000020020100204A
:1004D000FC0000202C01002000000020040000206F
:1004E000080000202E0100203601002038010020E5
:1004F00040010020420100204A0100204C01002060
:1005000010B5FE48007801280DD140F6B8304FF004
:10051000804148634021FA4804F062FE8021F84897
:1005200004F05CFE0BE000204FF080414863402166
:10053000F34804F055FE8021F14804F051FE10BD4F
:1005400010B5F048008868B140F26C704FF08041FF
:1005500048634021EA4804F043FE8021E84804F063
:100560003DFE25E0E848008868B140F26C704FF02D
:10057000804148634021E24804F032FE8021E04897
:1005800004F02CFE14E0E148007868B140F26C7091
:100590004FF0804148634021D94804F01FFE80217C
:1005A000D74804F01DFE03E000204FF0804148636F
:1005B00010BD10B5D6480078401CD54908700846D3
:1005C0000078322851DDD34890ED000AD248D0EDB2
:1005D000000AB4EE600AF1EE10FA34D1CF4890ED83
:1005E000000ACF48D0ED000AB4EE600AF1EE10FA2E
:1005F00029D1282002F0CAF9C64890ED000AC64861
:10060000D0ED000AB4EE600AF1EE10FA17D1C3483B
:1006100090ED000AC248D0ED000AB4EE600AF1EE97
:1006200010FA0CD1BF480078401CBE49087008463B
:10063000007803280ADD0120BB49087006E000208D
:10064000B849087002E00020B7490870B24890ED40
:10065000000AB04880ED000AB04890ED000AB048AA
:1006600080ED000A0020AA49087010BDAF4800784C
:1006700068B1AF4800681838AD490860084600689E
:10068000AC49884234DA0846A949086030E0AA48F3
:10069000007870B1A64800681830A549086008467F
:1006A000006840F21451884222DD0846A0490860E3
:1006B0001EE09F48006800280BDD9D4800689638C2
:1006C0009B49086008460068002811DC002008608B
:1006D0000EE09748006800280ADA954800689630CE
:1006E0009349086008460068002801DB0020086084
:1006F0008F48006870479148007870B19048006852
:100700000C388F490860084600688A49C839884211
:1007100034DA08468A49086030E08A48007870B1C7
:10072000874800681630864908600846006840F22D
:10073000DC51884222DD0846814908601EE080487D
:10074000006800280BDD7E48006864387C4908603A
:1007500008460068002811DC002008600EE0784898
:10076000006800280ADA7648006864307449086036
:1007700008460068002801DB002008607048006817
:1007800070472DED0A8B88B002F066FB4FF47A704B
:1007900002F0FCF802F016F902F020FA02F05CFB1D
:1007A00002F042F902F0A6FA642002F0EFF802F03B
:1007B000C3FA01F041FF17E002F03EF880216248E1
:1007C00004F00EFD6148007803280DD14FF48041FC
:1007D0005F4804F005FD40F6B83002F0D7F85B48FA
:1007E0000078032800D100E0E6E700BF4FF4804125
:1007F000574804F0F3FC8021534804F0EFFC01F06B
:1008000083FE02F0F9FC4FE3434890ED000AF3EE5B
:10081000030AB4EEE00AF1EE10FA08DC90ED000AEB
:10082000DFED4C0AB4EEE00AF1EE10FA64D23E4875
:100830000078002860D1384890ED000AF3EE030AF2
:10084000B4EEE00AF1EE10FA30DD09E0324890ED46
:10085000000AF2EE0A0A30EE600A3F4880ED000A14
:100860002D48006805F088FB41EC100BB0EE408A83
:10087000F0EE608A9FED390B53EC102B51EC180B06
:1008800005F0A2FBE2D22448006805F075FB41ECBC
:10089000100BB0EE408AF0EE608A9FED320B53EC05
:1008A000102B51EC180B05F07BFBCFD21A4890EDC2
:1008B000000ADFED280AB4EEE00AF1EE10FA6BD27E
:1008C00009E0154890ED000AF2EE0A0A30EE200A1F
:1008D000214880ED000A1048006805F04DFB41EC0E
:1008E000100BB0EE408AF0EE608A9FED1C0B53ECCB
:1008F000102B51EC180B39E079E00000FD010020CD
:1009000000200240EC010020EE010020E90100205F
:1009100018000020100000202802002020020020E3
:1009200014000020190000202D000020E701002005
:1009300020000020ECFAFFFFE6010020E501002086
:100940001C000020E401002000100240FC010020F7
:1009500000140240000020C230000020000000000F
:1009600000002DC0000000000000F83F05F02CFB47
:10097000A7D2FD48006805F0FFFA41EC100BB0EE7D
:10098000408AF0EE608A1FED090B53EC102B51ECFE
:10099000180B05F005FB94D2F348006805F0ECFA5B
:1009A00041EC100BB0EE408AF0EE608A9FEDEF0B49
:1009B00053EC102B51EC180B05F006FB17D2EA484C
:1009C000006805F0D9FA41EC100BB0EE408AF0EE69
:1009D000608A9FEDE80B53EC102B51EC180B05F0DF
:1009E000DFFA04D2B9EE0A0AE44880ED000A01F009
:1009F00023FFE348B0F9000010F52F7F05DDE04844
:100A0000B0F90000B0F52F7F02DB0020DC49088040
:100A1000DC48B0F9000010F52F7F05DDD948B0F9AA
:100A20000000B0F52F7F02DB0020D6490880D448B3
:100A3000B0F9000000EE100AB8EEC00AD24880ED0E
:100A4000000AD248007802287ED0D148B0F90000D0
:100A500041F2B441884202DD0846CD490880CC48C5
:100A6000B0F9000041F29411884202DA0846C84900
:100A70000880C6480078032802D0C6480078E0B352
:100A8000C348B0F9000041F29411884204DDBC482B
:100A9000B0F9000000280BDCBD48B0F9000041F2BD
:100AA000B44188423DDAB648B0F90000002838DA8F
:100AB000B348B0F9000005F02FFA41EC100BB0EE8E
:100AC00040BAF0EE60BA9FEDB40B53EC102B51EC32
:100AD0001B0B05F0B2F941EC100BB0EE409AF0EEB2
:100AE000609AAF48B0F9000005F016FA41EC100B1F
:100AF000B0EE40AAF0EE60AA00E013E053EC192B30
:100B000051EC1A0B05F021F941EC100BB0EE408AC4
:100B1000F0EE608A51EC180B05F00FFA00B2A04914
:100B200008804EE09A48B0F9000041F294118842E2
:100B300004DD9348B0F9000000280DDC9448B0F9BA
:100B4000000041F2B44100E058E0884239DA8C48B4
:100B5000B0F90000002834DA8948B0F9000005F047
:100B6000DBF941EC100BB0EE40BAF0EE60BA9FED4D
:100B70008D0B53EC102B51EC1B0B05F05EF941EC87
:100B8000100BB0EE409AF0EE609A7C48006805F0D9
:100B9000F3F941EC100BB0EE40AAF0EE60AA53EC72
:100BA000192B51EC1A0B05F0D0F841EC100BB0EEFC
:100BB000408AF0EE608A51EC180B05F019FA6F4983
:100BC00008607048B0F9000000EB800040007749F1
:100BD00008607748B0F90000404200EB8000400018
:100BE000744908607448B0F90000404200EB80008E
:100BF000400072490860FFF783FC70E06448B0F978
:100C0000000041F29411884204DD6D48B0F9000003
:100C100000280BDB5E48B0F9000041F2B441884285
:100C200039DA6748B0F90000002834DD6448B0F9CB
:100C3000000005F071F941EC100BB0EE40BAF0EE97
:100C400060BA9FED600B53EC102B51EC1B0B05F0C1
:100C5000F4F841EC100BB0EE409AF0EE609A474881
:100C6000006805F089F941EC100BB0EE40AAF0EEF7
:100C700060AA53EC192B51EC1A0B04F0C5FF41ECA0
:100C8000100BB0EE408AF0EE608A51EC180B05F0C4
:100C9000AFF93A490860FFF72EFD00EB40004349E9
:100CA0000860FFF7E3FC00EB400044490860474858
:100CB000B0F900004042462148434549097840F2D6
:100CC0006B3211FB02F100EB81004249097811FB04
:100CD00002F1A0EB810037490860FFF731FC3E4884
:100CE0000068401C3C4908600846006814283ADD4A
:100CF0003A48006805F040F941EC100BB0EE408A2C
:100D0000F0EE608A3648006805F036F941EC100BC9
:100D1000B0EE409AF0EE609A3248006805F02CF987
:100D200041EC100BB0EE40AAF0EE60AA2E4800682D
:100D300005F022F941EC100BB0EE40BAF0EE60BACB
:100D40000948006805F018F941EC100BB0EE40CAF4
:100D5000F0EE60CA8DED068B8DED049B8DED02AB40
:100D60008DED00BB42E09AE0280200200000000068
:100D7000000027C0000000000000F8BF3000002085
:100D8000F8010020F4010020D8010020FC0100201F
:100D9000F80000202D0000200000000000804640E8
:100DA000340000200000000000409F4000000020B0
:100DB000FA01002008000020F601002004000020B5
:100DC000F20100200000000000005E40F001002061
:100DD000EA010020EB0100200C000020F4000020BC
:100DE00020020020300200202C02002053EC1C2B9B
:100DF0002EA005F07FFA3D48006805F0BDF841ECF3
:100E0000100BB0EE408AF0EE608A3948006805F0B9
:100E1000B3F841EC100BB0EE409AF0EE609A354812
:100E2000007835490978CDE904108DED028B3348FF
:100E3000B0F9000053EC192B009031A005F05AFADC
:100E40003848006805F098F841EC100BB0EE408A85
:100E5000F0EE608A3448B0F900003449B1F900106E
:100E6000CDE902108DED008B3148B0F900203148FA
:100E7000B0F9001030A005F03DFA3B48B0F9000091
:100E800000903A48B0F900303948B0F900203948AC
:100E90000178394805F02EFA002038490860FFF73C
:100EA00088FB042001F072FDAEE4000070697463F9
:100EB000683D3D252E31662D2D2D726F6C6C3D3DAC
:100EC000252E31662D2D2D7961773D3D252E3166FC
:100ED0002D2D2D775F793D3D25663E3E3E73706535
:100EE00065643D252E31660D0A00000030000020AB
:100EF00028020020FD010020FC010020FC00002051
:100F000028252E31663E3E3E3E252E31643E3E3E35
:100F10003E252E31662029252E316420252E316470
:100F2000200D0A00D801002034000020F800002025
:100F3000F8010020F40100203C3C252E31645E5E67
:100F40005E5E5E5E252E31642E2E2E2E2E252E31D7
:100F5000663E3E2028252E31643E3E3E3E252E3103
:100F600064290D0A00000000360000200201002064
:100F7000FE0000202D000020D86B00080C0000208F
:100F8000B0EE401AFE4890ED010A80ED000A30EE06
:100F9000C10A80ED010A90ED010AFA48D0ED001A6D
:100FA00030EE210A80ED000A90ED000AF648D0EDFF
:100FB000001AB4EEE10AF1EE10FA04DD90ED000A39
:100FC000F04880ED000AEF4890ED000AEE48D0EDC1
:100FD000001AF1EE611AB4EEE10AF1EE10FA06D24F
:100FE00090ED000AB1EE400AE64880ED000AE448C0
:100FF00090ED000AD0ED011A30EE610AE348D0ED21
:10100000001A20EE210ADE48D0ED011AE04890EDEA
:10101000002A02EE210ADF48D0ED001AD94890EDEF
:10102000002A01EE820ADC4880ED000A90ED000AF9
:10103000DA48D0ED001AB4EEE10AF1EE10FA04DD60
:1010400090ED000AD44880ED000AD34890ED000AE4
:10105000D248D0ED001AF1EE611AB4EEE10AF1EED9
:1010600010FA06D290ED000AB1EE400ACA4880EDAF
:10107000000AC94890ED000A7047B0EE401A30EE01
:10108000C10AC74880ED000AC64890ED000AC4486E
:10109000D0ED001A30EE210AC24880ED000A90ED32
:1010A000000AB948D0ED001AB4EEE10AF1EE10FAE8
:1010B00004DD90ED000ABB4880ED000AB94890EDD0
:1010C000000AB148D0ED001AF1EE611AB4EEE10A5F
:1010D000F1EE10FA06D290ED000AB1EE400AB148E6
:1010E00080ED000AB04890ED000AAD48D0ED001A3E
:1010F00020EE210AAD48D0ED001AAA4890ED002A52
:1011000001EE820AAA4880ED000A90ED000AA34889
:10111000D0ED001AB4EEE10AF1EE10FA04DD90ED24
:10112000000AA34880ED000AA14890ED000A9B4800
:10113000D0ED001AF1EE611AB4EEE10AF1EE10FA08
:1011400006D290ED000AB1EE400A994880ED000AFF
:10115000974890ED000A704700B59648B0F9000036
:1011600000EE100AF8EEC00A9348B0F9000000EE55
:10117000100AB8EEC00AFFF780FF904880ED000A21
:101180008C48B0F900008C49B1F90010401A00EE0B
:10119000900AF8EEE00AB0EE600A8848D0ED000A46
:1011A000FFF7EEFE8648D0ED000A20EE200A8348C5
:1011B000D0ED000A834890ED001A00EE810ABDEEE2
:1011C000C00A10EE100A00B27F4908800846B0F944
:1011D000000000EE100AB8EEC00A7048D0ED000A18
:1011E000B4EEE00AF1EE10FA07DD90ED000ABDEE74
:1011F000C00A10EE100A00B208807348B0F900006F
:1012000000EE100AB8EEC00A6448D0ED000AF1EE14
:10121000600AB4EEE00AF1EE10FA0AD290ED000A8C
:10122000B1EE400ABDEEC00A10EE100A00B26649E7
:10123000088000BD10B52DED088BB0EE408AF0EEB1
:10124000608A9FED620AB0EE40AA9FED610AF0EE5F
:1012500040AA9FED600AB0EE40BAB5EEC08AF1EE4A
:1012600010FA02DDB0EE480A01E0B1EE480A10EED5
:10127000101A084604F080FE41EC190B9FED560B46
:1012800053EC102B04F08CFE03D29FED550AB0EE08
:10129000408A544890ED010A80ED000A38EEC80AF1
:1012A00080ED010A90ED010A4F48D0ED000A30EEC2
:1012B000200A80ED000A90ED000A3348D0ED000AC4
:1012C000B4EEE00AF1EE10FA04DD90ED000A4648B3
:1012D00080ED000A444890ED000A2B48D0ED000A4A
:1012E000F1EE600AB4EEE00AF1EE10FA06D290EDEB
:1012F000000AB1EE400A3C4880ED000A394890ED02
:10130000010AD0ED000A30EE600ADFED320A20EE6D
:10131000200AD0ED010A9FED2D1A00EE810A324815
:10132000D0ED000A9FED2A1A01EE200A2F4880ED29
:10133000000A90ED000A1948D0ED000AB4EEE00A68
:10134000F1EE10FA04DD90ED000A284880ED000A65
:10135000264890ED000A1148D0ED000AF1EE600A2F
:10136000B4EEE00AF1EE10FA06D290ED000AB1EE0A
:10137000400A1E4880ED000A1C4890ED000A37E044
:10138000B8000020C40000202800002068000020D1
:101390006000002064000020C00000202400002025
:1013A000C8000020D0000020580000205C00002071
:1013B000CC00002034000020F80000209000002025
:1013C000700000206C000020FC00002033335340EC
:1013D0000AD7233C1A002042000000000000000051
:1013E0000000000098000020A4000020A0000020C1
:1013F000BDEC088B10BDB0EE401AB1EE060AF0EE5F
:10140000401A9FEDFE0AB0EE402A9FEDFD0AF0EE75
:10141000402AFC4890ED010A80ED000A30EEC10A36
:1014200080ED010A90ED010AF74890ED003A30EEA8
:10143000030A80ED000A90ED000AF44890ED003AAE
:10144000B4EEC30AF1EE10FA04DD90ED000AEE48A6
:1014500080ED000AEC4890ED000AEC4890ED003A6F
:10146000B1EE433AB4EEC30AF1EE10FA06D290EDB3
:10147000000AB1EE400AE44880ED000AE14890ED30
:10148000010AB1EE063A20EE030ADF4890ED003A79
:10149000DFEDDA3A03EE230ADA4890ED013AD0EDB7
:1014A000003A33EE633ADFEDD63A03EE230AD8482A
:1014B00080ED000A90ED000AD64890ED003AB4EEB7
:1014C000C30AF1EE10FA04DD90ED000AD04880ED79
:1014D000000ACF4890ED000ACE4890ED003AB1EEF8
:1014E000433AB4EEC30AF1EE10FA06D290ED000AC8
:1014F000B1EE400AC64880ED000AC54890ED000AEA
:10150000704710B5C448B0F9000000EE100AF8EEBC
:10151000C00AC248B0F9000000EE100AB8EEC00AD6
:10152000FFF769FFBE4880ED000ABB48B0F9000034
:10153000BA49B1F90010401A00EE900AF8EEE00A3C
:10154000B0EE600AB648D0ED000AFFF773FEB5486A
:10155000D0ED000A20EE200AB148D0ED000AB248D2
:1015600090ED001A00EE810ABDEEC00A10EE100ADE
:1015700000B2AE4908800846B0F9000000EE100A3B
:10158000B8EEC00AA348D0ED000AB4EEE00AF1EECE
:1015900010FA07DD90ED000ABDEEC00A10EE100A49
:1015A00000B20880A148B0F9000000EE100AB8EEC1
:1015B000C00A9848D0ED000AF1EE600AB4EEE00AE5
:1015C000F1EE10FA0AD290ED000AB1EE400ABDEE3B
:1015D000C00A10EE100A00B29449088010BDB0EEA7
:1015E000401A934890ED010A80ED000A30EEC10ADE
:1015F00080ED010A90ED010A8E48D0ED001A30EE20
:10160000210A80ED000A90ED000A8048D0ED001A12
:10161000B4EEE10AF1EE10FA04DD90ED000A85481F
:1016200080ED000A834890ED000A7848D0ED001A5A
:10163000F1EE611AB4EEE10AF1EE10FA06D290ED85
:10164000000AB1EE400A7B4880ED000A784890ED30
:10165000010A7948D0ED001A20EE210A7748D0ED32
:10166000001A744890ED002A01EE820A7048D0ED0D
:10167000001A90ED012A71EEC21A714890ED002A0D
:1016800002EE210A6F4880ED000A90ED000A6148E1
:10169000D0ED001AB4EEE10AF1EE10FA04DD90ED9F
:1016A000000A684880ED000A664890ED000A594833
:1016B000D0ED001AF1EE611AB4EEE10AF1EE10FA83
:1016C00006D290ED000AB1EE400A5E4880ED000AB5
:1016D0005C4890ED000A7047B0EE401A5A4890ED11
:1016E000010A80ED000A30EEC10A80ED010A90ED9A
:1016F000010A5648D0ED001A30EE210A80ED000AAA
:1017000090ED000A4148D0ED001AB4EEE10AF1EE86
:1017100010FA04DD90ED000A4C4880ED000A4B48B9
:1017200090ED000A3948D0ED001AF1EE611AB4EEDE
:10173000E10AF1EE10FA06D290ED000AB1EE400A8D
:10174000424880ED000A404890ED000AD0ED011AB1
:1017500030EE610A3E48D0ED001A20EE210A3A48E8
:10176000D0ED011A3B4890ED002A02EE210A3A48DA
:10177000D0ED001A354890ED002A01EE820A374874
:1017800080ED000A90ED000A2248D0ED001AB4EE78
:10179000E10AF1EE10FA04DD90ED000A2F4880ED29
:1017A000000A2E4890ED000A1A48D0ED001AF1EE1A
:1017B000611AB4EEE10AF1EE10FA06D290ED000AD9
:1017C000B1EE400A254880ED000A244890ED000A59
:1017D000704700B52248D0ED000A224890ED000A7B
:1017E000FFF7FDFE204880ED000AD0ED000A1F48FB
:1017F00090ED000AB1EE400A3AE00000BD378635B0
:10180000ACC52737A8000020B40000202800002025
:10181000B00000202400002036000020FE00002040
:10182000940000208C00002088000020020100208D
:10183000D4000020E0000020380000203C00002000
:1018400040000020DC000020E4000020F000002028
:101850004C0000204400002048000020EC00002044
:101860003000002028020020F40000202002002088
:10187000FFF732FF2348D0ED000A20EE200A22486D
:10188000D0ED000A214890ED001A00EE810ABDEE6D
:10189000C00A10EE100A00B21D4908800846B0F9CF
:1018A000000000EE100AB8EEC00A1A48D0ED000A97
:1018B000B4EEE00AF1EE10FA07DD90ED000ABDEE9D
:1018C000C00A10EE100A00B208801148B0F90000FA
:1018D00000EE100AB8EEC00A0E48D0ED000AF1EE94
:1018E000600AB4EEE00AF1EE10FA0AD290ED000AB6
:1018F000B1EE400ABDEEC00A10EE100A00B2044973
:10190000088000BD54000020F4000020500000209A
:10191000FC0000202400002010B52DED048BB0EE5B
:10192000408AF0EE608AFE4890ED010A80ED000AE0
:1019300038EEC80A80ED010A90ED010AF948D0EDB1
:10194000000A30EE200A80ED000AF54890ED010A09
:10195000F548D0ED000A20EE200AF248D0ED000A4A
:10196000F24890ED001A00EE810AED48D0ED010A30
:1019700090ED001A70EEC10AED4890ED001A00EEED
:10198000810AEC4880ED000A006804F0F5FA41ECA9
:10199000100BB0EE409AF0EE609A9FEDE70B53EC1F
:1019A000102B51EC190B04F00FFB04D29FEDE40A4D
:1019B000E04880ED000ADF48006804F0DDFA41EC01
:1019C000100BB0EE409AF0EE609A9FEDDE0B53ECF8
:1019D000102B51EC190B04F0E3FA04D29FEDDB0A53
:1019E000D44880ED000AD34890ED000ABDEC048B8A
:1019F00010BD10B52DED048BB0EE408AF0EE608A7C
:101A0000B5EEC08AF1EE10FA02DDB0EE480A01E050
:101A1000B1EE480A10EE101A084604F0ADFA41EC97
:101A2000190B9FEDCB0B53EC102B04F0B9FA03D23A
:101A30009FEDC90AB0EE408AC84890ED010A80EDDA
:101A4000000A38EEC80A80ED010A90ED010AD0EDD7
:101A5000000A30EE600AC248D0ED000A20EE200AEB
:101A6000BE48D0ED010ABF4890ED001A00EE810A91
:101A7000BD4880ED000A006804F07EFA41EC100BCE
:101A8000B0EE409AF0EE609A9FEDAB0B53EC102B4A
:101A900051EC190B04F098FA04D29FEDA90AB24850
:101AA00080ED000AB048006804F066FA41EC100BC3
:101AB000B0EE409AF0EE609A9FEDA20B53EC102B23
:101AC00051EC190B04F06CFA04D29FEDA00AA64861
:101AD00080ED000AA44890ED000ABDEC048B10BD17
:101AE00010B52DED028BA148B0F9000000EE100AF0
:101AF000F8EEC00A9E48B0F9000000EE100AB8EEF9
:101B0000C00AFFF776FF9B4880ED000AD0ED000A7F
:101B10009948B0F9000000EE100AB8EEC00AFFF7CD
:101B2000FBFE9648D0ED000A20EE200A9148D0ED49
:101B3000000A934890ED001A00EE810ABDEEC00A3B
:101B400010EE100A00B28A4908808A4890ED000A17
:101B5000BDEEC00A10EE100A00B287490880844822
:101B6000B0F9000004F0D8F941EC100BB0EE408A57
:101B7000F0EE608A9FED700B53EC102B51EC180BBC
:101B800004F022FA03D241F2707079490880784853
:101B9000B0F9000004F0C0F941EC100BB0EE408A3F
:101BA000F0EE608A9FED670B53EC102B51EC180B95
:101BB00004F0F6F903D24EF690006D490880BDECB2
:101BC000028B10BD10B52DED048BB0EE408AF0EE07
:101BD000608A6C4890ED010A80ED000A38EEC80A70
:101BE00080ED010A90ED010A6748D0ED000A30EE61
:101BF000200A80ED000A634890ED010A4A48D0EDC2
:101C0000000A20EE200A6048D0ED000A474890ED17
:101C1000001A00EE810A5B48D0ED010A90ED001A2F
:101C200070EEC10A424890ED001A00EE810A574852
:101C300080ED000A006804F09FF941EC100BB0EE53
:101C4000409AF0EE609A9FED3C0B53EC102B51EC58
:101C5000190B04F0B9F904D29FED390A4B4880ED15
:101C6000000A4A48006804F087F941EC100BB0EE16
:101C7000409AF0EE609A9FED330B53EC102B51EC31
:101C8000190B04F08DF904D29FED300A3F4880ED26
:101C9000000A3E4890ED000ABDEC048B10BD10B563
:101CA0002DED048BB0EE408AF0EE608AB5EEC08A6E
:101CB000F1EE10FA02DDB0EE480A01E0B1EE480A9A
:101CC00010EE101A084604F057F941EC190B9FED7D
:101CD000200B53EC102B04F063F903D29FED1E0A86
:101CE000B0EE408A2A4890ED010A80ED000A38EEF5
:101CF000C80A80ED010A90ED010AD0ED000A30EE2D
:101D0000600A1748D0ED000A20EE200A2048D0EDE6
:101D1000010A144890ED001A00EE810A1D483BE0CC
:101D2000600100206C010020080100200C0100204F
:101D30001001002068010020000000000070B74082
:101D40000080BB45000000000070B7C00080BBC52C
:101D5000000000000000000000000000A0010020C2
:101D60001801002014010020A80100202E010020ED
:101D70002C01002050010020280100202401002017
:101D800020010020700100207C010020780100204B
:101D9000AC010020B401002080ED000A006804F0CE
:101DA000EBF841EC100BB0EE409AF0EE609A1FEDAC
:101DB0001E0B53EC102B51EC190B04F005F904D257
:101DC0001FED210AFE4880ED000AFD48006804F07E
:101DD000D3F841EC100BB0EE409AF0EE609A1FED94
:101DE000270B53EC102B51EC190B04F0D9F804D24B
:101DF0001FED2A0AF24880ED000AF14890ED000A32
:101E0000BDEC048B10BD10B52DED028BED48B0F983
:101E1000000000EE100AF8EEC00AEB48B0F900002E
:101E200000EE100AB8EEC00AFFF739FFE74880ED70
:101E3000000AD0ED000AE648B0F9000000EE100AF2
:101E4000B8EEC00AFFF7BEFEE248D0ED000A20EE71
:101E5000200ADE48D0ED000ADF4890ED001A00EEBF
:101E6000810ABDEEC00A10EE100A00B2D649088001
:101E7000D64890ED000ABDEEC00A10EE100A00B27E
:101E8000D3490880D048B0F9000004F045F841EC8F
:101E9000100BB0EE408AF0EE608A1FED590B53EC48
:101EA000102B51EC180B04F08FF803D241F2707034
:101EB000C5490880C448B0F9000004F02DF841EC91
:101EC000100BB0EE408AF0EE608A1FED620B53EC0F
:101ED000102B51EC180B04F063F803D24EF690006F
:101EE000B9490880BDEC028B10BD10B52DED048BF7
:101EF000B0EE408AF0EE608AB84890ED010A80EDBD
:101F0000000A38EEC80A80ED010A90ED010AB448D3
:101F1000D0ED000A30EE200A80ED000AAF4890EDC7
:101F2000010AB048D0ED000A20EE200AAC48D0EDFE
:101F3000000AAD4890ED001A00EE810AA748D0EDE6
:101F4000010A90ED001A70EEC10AA84890ED001A3F
:101F500000EE810AA64880ED000A006804F00CF843
:101F600041EC100BB0EE409AF0EE609A1FED8E0B34
:101F700053EC102B51EC190B04F026F804D21FED92
:101F8000900A9B4880ED000A9948006803F0F4FF2E
:101F900041EC100BB0EE409AF0EE609A1FED970BFB
:101FA00053EC102B51EC190B03F0FAFF04D21FED88
:101FB000990A8F4880ED000A8D4890ED000ABDEC2B
:101FC000048B10BD10B52DED048BB0EE408AF0EE01
:101FD000608AB5EEC08AF1EE10FA02DDB0EE480A72
:101FE00001E0B1EE480A10EE101A084603F0C4FFF3
:101FF00041EC190B1FEDAA0B53EC102B03F0D0FF93
:1020000003D21FEDAB0AB0EE408A7A4890ED010A88
:1020100080ED000A38EEC80A80ED010A90ED010A51
:10202000D0ED000A30EE600A7348D0ED000A20EED1
:10203000200A7048D0ED010A704890ED001A00EEB9
:10204000810A6F4880ED000A006803F095FF41ECBB
:10205000100BB0EE409AF0EE609A1FEDC90B53ECF6
:10206000102B51EC190B03F0AFFF04D21FEDCC0A7B
:10207000634880ED000A6248006803F07DFF41EC90
:10208000100BB0EE409AF0EE609A1FEDD20B53ECBD
:10209000102B51EC190B03F083FF04D21FEDD50A6E
:1020A000574880ED000A564890ED000ABDEC048BBD
:1020B00010BD10B52DED028B5248B0F9000000EEB6
:1020C000100AF8EEC00A5048B0F9000000EE100AFD
:1020D000B8EEC00AFFF776FF4C4880ED000AD0ED5D
:1020E000000A4B48B0F9000000EE100AB8EEC00A32
:1020F000FFF7FBFE3748D0ED000A20EE200A4348E8
:10210000D0ED000A344890ED001A00EE810ABDEED1
:10211000C00A10EE100A00B23B4908803B4890ED1F
:10212000000ABDEEC00A10EE100A00B2384908805D
:102130003548B0F9000003F0EFFE41EC100BB0EEB3
:10214000408AF0EE608A9FED330B53EC102B51EC7C
:10215000180B03F039FF03D241F270702A4908804E
:102160002948B0F9000003F0D7FE41EC100BB0EEA7
:10217000408AF0EE608A9FED290B53EC102B51EC56
:10218000180B03F00DFF03D24EF690001E49088095
:10219000BDEC028B10BD10B52DED048BB0EE408A66
:1021A000F0EE608A1F4890ED010A80ED000A38EEDB
:1021B000C80A80ED010A90ED010A1B4836E00000D4
:1021C000B401002038010020360100205401002015
:1021D0003201002024010020200100208001002085
:1021E0008C010020080100200C01002010010020BB
:1021F00088010020B80100201801002014010020EF
:10220000C0010020420100204001002058010020B0
:102210003C010020000000000070B74000000000FA
:102220000070B7C0900100209C010020D0ED000A92
:1022300030EE200A80ED000A9E4890ED010A9E488B
:10224000D0ED000A20EE200A9C48D0ED000A9C4800
:1022500090ED001A00EE810A9648D0ED010A90ED4B
:10226000001A70EEC10A974890ED001A00EE810A3C
:10227000954880ED000A006803F07EFE41EC100BEB
:10228000B0EE409AF0EE609A1FED1E0B53EC102B4F
:1022900051EC190B03F098FE04D29FED8C0A8A488A
:1022A00080ED000A8848006803F066FE41EC100BE0
:1022B000B0EE409AF0EE609A1FED280B53EC102B15
:1022C00051EC190B03F06CFE04D29FED810A7E489D
:1022D00080ED000A7C4890ED000ABDEC048B10BD37
:1022E00010B52DED048BB0EE408AF0EE608AB5EEAD
:1022F000C08AF1EE10FA02DDB0EE480A01E0B1EE5C
:10230000480A10EE101A084603F036FE41EC190B8D
:102310009FED700B53EC102B03F042FE03D29FEDA8
:102320006F0AB0EE408A6E4890ED010A80ED000A17
:1023300038EEC80A80ED010A90ED010AD0ED000ADE
:1023400030EE600A6748D0ED000A20EE200A6448AB
:10235000D0ED010A644890ED001A00EE810A63484E
:1023600080ED000A006803F007FE41EC100BB0EEB0
:10237000409AF0EE609A1FED590B53EC102B51EC84
:10238000190B03F021FE04D29FED500A574880ED4F
:10239000000A5648006803F0EFFD41EC100BB0EE68
:1023A000409AF0EE609A1FED630B53EC102B51EC4A
:1023B000190B03F0F5FD04D29FED450A4B4880ED63
:1023C000000A4A4890ED000ABDEC048B10BD10B520
:1023D0002DED028B4648B0F9000000EE100AF8EE31
:1023E000C00A4448B0F9000000EE100AB8EEC00A76
:1023F000FFF776FF404880ED000AD0ED000A3F4825
:10240000B0F9000000EE100AB8EEC00AFFF7C3FEF4
:102410003B48D0ED000A20EE200A3748D0ED000AF4
:10242000384890ED001A00EE810ABDEEC00A10EEA9
:10243000100A00B22F4908802F4890ED000ABDEE27
:10244000C00A10EE100A00B22C4908802948B0F9E1
:10245000000003F061FD41EC100BB0EE408AF0EE9D
:10246000608A1FED940B53EC102B51EC180B03F00A
:10247000ABFD03D241F270701E4908801D48B0F9CF
:10248000000003F049FD41EC100BB0EE408AF0EE85
:10249000608A1FED9E0B53EC102B51EC180B03F0D0
:1024A0007FFD03D24EF6900012490880BDEC028BEE
:1024B00010BD000090010020080100209C010020B8
:1024C0000C01002010010020980100200080BB4575
:1024D0000080BBC5000000000000000000000000FC
:1024E000C40100201801002014010020CC010020AC
:1024F0004C0100204A0100205C0100204601002020
:10250000240100202001002000B58BB0012108200B
:1025100001F048FF0121480601F077FF0922002160
:10252000424802F06AFE09220121404802F065FE9D
:102530000320029002208DF80C0002A93B4802F013
:10254000D1FD14208DF8040002208DF80500012033
:102550008DF806008DF8070001A800F0DEFE1320BC
:102560008DF8040000208DF8050001208DF806008C
:102570008DF8070001A800F0D0FE2D4802F050F8B9
:1025800008A802F071F900208DF826008DF82700C8
:102590008DF828008DF829008DF82A0001208DF88B
:1025A0002B0000208DF822008DF8230008208DF8E4
:1025B000240003208DF82500ADF8200008A91C4850
:1025C00002F047F800208DF81A008DF81B0001205A
:1025D0008DF81C000020ADF81000ADF81200ADF829
:1025E0001400ADF81600ADF8180001208DF81D009C
:1025F00004A802F0B8F8012202210D4802F0B1FB54
:10260000012211460A4802F0ACFB0BB000BD10B528
:102610000121074802F00CFC30B10121044802F00E
:10262000A0FC01200349087010BD0000000C02400E
:1026300000640040D001002000B597B001210220C5
:1026400001F0B0FE0121102001F0F0FE012188050B
:1026500001F0A8FE07221146B24802F0CEFD80200C
:10266000119002208DF8480000208DF84A000320C8
:102670008DF8490000208DF84B0011A9A94802F0FF
:1026800031FDA94813900020ADF85000ADF852007C
:10269000ADF854000420ADF856000020ADF8580005
:1026A00013A9A24802F02CFE0121A04802F0B0FEBE
:1026B000012240219D4802F058FF3A208DF8400049
:1026C00000208DF841008DF8420001208DF8430074
:1026D00010A800F022FE964803F0B2F84FF0006018
:1026E00001909248001D02909248039000200490AF
:1026F00012200590002006904FF480600790002083
:10270000089009904FF480700A904FF440300B907D
:1027100000200C900D900E900F9001A9844803F0BA
:1027200031F901221021824803F0F2F90121804899
:1027300003F062F90A2000F029F917B000BD10B5C6
:102740007D497B4803F001FA002874D07A49784823
:1027500003F0CAF97849764803F020FA012000F026
:1027600015F9012075490870724800787149497857
:1027700040EA0120C0F30A00714908606D484078C2
:10278000C0106C49897840EA4110C0F30A006C49D6
:1027900048606848807880116649C97840EA8100BD
:1027A0006449097940EA8120C0F30A0064498860DD
:1027B0006048007940105F49497940EAC110C0F390
:1027C0000A005F49C8605B484079001180080861D1
:1027D00058484079C0F301104861564880795549FE
:1027E000C97940EA0120564988615248007A514926
:1027F000497A40EA01205249C8614E48807A4D49E1
:10280000C97A40EA01204E4908624A48007B486282
:102810004848407B88624748807B4649C97B40EAFC
:1028200001204749C8624348007C4249497C40EA4C
:1028300001204349086310BD41488089A0F58060AC
:1028400000B2404908803E480089A0F5806000B28F
:102850003D4908803A488088A0F5806000B23B4935
:10286000088037480088A0F5806000B238490880A9
:102870003048407900118008364908702D48407969
:10288000C0F30110344908702D48808C00B23349E0
:1028900008802B48008D00B2314908802848008B01
:1028A00000B2304908802648808B00B22E4908804B
:1028B000234890F82C0000F001002C4908702048B3
:1028C00090F82C00C0F34000294908701C4890F88B
:1028D0002C00C0F3800027490870194890F82C009C
:1028E000C0F3C00024490870154890F82C00C0F3CC
:1028F000001022490870124890F82C00C0F34010D4
:102900001F4908700E4890F82C00C0F380101D4934
:1029100008700B4890F82C00C0F3C0101A490870DA
:102920007047000000040240A08601000010014032
:10293000406402405C02002000802010D40100208E
:1029400070020020F4010020F6010020F8010020B0
:10295000FA010020FC010020FD010020EC01002014
:10296000EE010020F0010020F2010020E40100202F
:10297000E5010020E6010020E7010020E801002039
:10298000E9010020EA010020EB01002010B5002140
:1029900007E04AF2104200BF1300A2F10102FBD18E
:1029A000491C8142F5D310BD10B5002106E0282254
:1029B00000BF1300A2F10102FBD1491C8142F6D3F2
:1029C00010BD00001CB50121302001F0EBFC4FF4DC
:1029D0008040009001208DF8040000208DF8060052
:1029E00003208DF8050069460D4802F07BFB80202E
:1029F000009001208DF8040000208DF806000320CF
:102A00008DF805006946074802F06CFB4FF48041E1
:102A1000034802F0E3FB8021024802F0DFFB1CBD0B
:102A2000001402400010024000B58BB001210802E2
:102A300001F0B8FCC020099001208DF82800022088
:102A40008DF8290009A9614802F04CFB01210846D4
:102A500001F0A8FC0121084601F0D7FC01200990F3
:102A600002208DF8280000208DF829000122002185
:102A7000574802F0C2FB09A9554802F033FBA720D2
:102A8000ADF8180042F20F7007900020ADF81A0060
:102A9000ADF8200006A94FF0804000F058FD6020FE
:102AA000ADF804000120ADF806000020ADF80800E4
:102AB0000390ADF810000220ADF812000020ADF830
:102AC00014004FF48070ADF8160001A9800500F0E5
:102AD000D3FD0121880701F0B4F90821C80600F0F0
:102AE00058FF0121880700F09DFD0121880700F0B3
:102AF000B7FD0121802001F055FC0121402001F0AB
:102B000084FC4FF41070099002208DF828000020FA
:102B10008DF82900092211462E4802F06EFB092289
:102B200006212C4802F069FB09A92A4802F0DAFACA
:102B30005320ADF818000020ADF81A0040F2CF7015
:102B400007900020ADF8200006A9234800F0FFFC04
:102B50006020ADF804000120ADF806000020ADF8BB
:102B600008004FF47A7003900020ADF81000ADF823
:102B70001200ADF814004FF48070ADF8160001A9F2
:102B8000154800F079FD01A9134800F0AEFD01A938
:102B9000114800F071FD01A90F4800F0A6FD0821C1
:102BA0000D4800F0F6FE08210B4800F0FBFE012165
:102BB000094800F037FD0121074801F042F90121E1
:102BC000054800F04DFD0BB000BD000000200240A4
:102BD00000000240001C02400018004000B587B011
:102BE0000121082001F0DEFB0121880401F00DFC29
:102BF000072209213C4802F000FB072208213A483D
:102C000002F0FBFA4FF44070019002208DF80800AA
:102C100000208DF80A0003208DF8090000208DF8AF
:102C20000B0001A9304802F05DFA4FF4E130039047
:102C30000020ADF81000ADF81200ADF814000C2023
:102C4000ADF816000020ADF8180003A9274802F0DF
:102C500057FB012240F22551244802F08FFC01214C
:102C6000224802F0D5FB27208DF8000003208DF8C4
:102C700001008DF8020001208DF80300684600F085
:102C80004CFB07B000BD10B5044600BF40211748FB
:102C900002F099FC0028F9D02146144802F0E3FB29
:102CA00010BD70B504460D4600BF40210F4802F02C
:102CB0008AFC0028F9D0E1B20C4802F0D4FB20468F
:102CC00070BD10B540F22551084802F092FC48B1A1
:102CD00040F22551054802F0C3FC0448001D00885D
:102CE0000349087010BD0000000C0240004800407D
:102CF000FE0100201FB50121102001F086FB3620C7
:102D00008DF8000002208DF801008DF802000120EE
:102D10008DF80300684600F000FB5320ADF8040076
:102D20000020ADF80600ADF80C004248029001A961
:102D3000414800F00CFC1FBD10B54FF47A703F49BC
:102D4000086001213C4800F08BFC012211463A4802
:102D500001F09EF80121384801F0AEF810BD10B521
:102D60002DED048B36480078022810D135480068D4
:102D700033490978401A012809D13348007818B13D
:102D800000203149087002E001202F4908702E48C8
:102D9000007878B32948006803F0BEF841EC100BC6
:102DA000B0EE409AF0EE609A9FED280B53EC102B9A
:102DB00051EC190B02F028FF41EC100BB0EE408AE9
:102DC000F0EE608A51EC180B03F0B7F81B4908606D
:102DD000084600681F49086018480068091D086017
:102DE0001648006840F2AA5188420ADD0846134995
:102DF000086006E0FFE74FF4487016490860091DB7
:102E000008600F4800780F490860BDEC048B10BDC6
:102E100010B50121084801F052F838B101210648E7
:102E200001F05EF80121044801F046F8FFF797FF32
:102E300010BD0000E09304000010004008020020D4
:102E4000FD01002000020020040200206666666684
:102E5000666606403418004000B597B0012108208E
:102E600001F0A0FA0121480401F0CFFA0121480540
:102E700001F098FA07220521CE4802F0BEF9072298
:102E80000621CC4802F0B9F96020119002208DF89B
:102E9000480000208DF84A0003208DF849000020EA
:102EA0008DF84B0011A9C34802F01CF94FF4E13032
:102EB00013900020ADF85000ADF85200ADF854006A
:102EC0000420ADF856000020ADF8580013A9BA4808
:102ED00002F016FA0121B84802F09AFA01224021C4
:102EE000B54802F042FB10208DF8400000208DF81C
:102EF00041008DF8420001208DF8430010A800F039
:102F00000CFAAE4802F09CFC4FF000600190AA4819
:102F1000001D0290AA4803900020049021200590F3
:102F2000002006904FF480600790002008900990E0
:102F30004FF480700A904FF440300B9000200C90BA
:102F40000D900E900F9001A99C4802F01BFD0122EC
:102F500010219A4802F0DCFD0121984802F04CFD56
:102F60000A20FFF713FD17B000BD10B52DED068B3D
:102F70009449924802F0E9FD00287DD091498F489C
:102F800002F0B2FD8F498D4802F008FE0220FFF7E3
:102F9000FDFC8B48007855286FD101208A490870C4
:102FA0008748007B522861D18549497B844A927BBE
:102FB00041EA022108B202F0AFFF41EC100BB0EE83
:102FC00040AAF0EE60AA9FED810B53EC102B51EC60
:102FD0001A0B02F032FF41EC100BB0EE409AF0EE0B
:102FE000609A9FED7C0B53EC102B51EC190B02F007
:102FF000B2FE41EC100BB0EE408AF0EE608A51EC6C
:10300000180B02F0F5FF754908606D49C97B6C4AE1
:10301000127C41EA022108B202F07EFF41EC100B63
:10302000B0EE40AAF0EE60AA9FED680B53EC102BB7
:1030300051EC1A0B02F001FF41EC100BB0EE409A7C
:10304000F0EE609A9FED630B53EC102B51EC190BD3
:1030500002F081FE41EC100BB0EE408AF0EE608A87
:1030600051EC180B02F0C4FF5D4908605448C07D64
:10307000532801D1524901E098E092E0097E504A7C
:10308000527E41EA022108B202F046FF41EC100BE9
:10309000B0EE40AAF0EE60AA9FED4C0B53EC102B63
:1030A00051EC1A0B02F0C9FE41EC100BB0EE409A45
:1030B000F0EE609A9FED4B0B53EC102B51EC190B7B
:1030C00002F049FE41EC100BB0EE408AF0EE608A4F
:1030D00051EC180B02F08CFF444908603849897E96
:1030E000374AD27E41EA022108B202F015FF41ECD4
:1030F000100BB0EE40AAF0EE60AA9FED340B53EC3B
:10310000102B51EC1A0B02F098FE41EC100BB0EEB4
:10311000409AF0EE609A9FED330B53EC102B51EC7C
:10312000190B02F018FE41EC100BB0EE408AF0EEE5
:10313000608A51EC180B02F05BFF2D4908602049B2
:10314000097F1F4A527F41EA022108B202F0E4FEE1
:1031500041EC100BB0EE40AAF0EE60AA9FED1B0B05
:1031600053EC102B51EC1A0B02F067FE41EC100BE4
:10317000B0EE409AF0EE609A9FED1A0B53EC102BD4
:1031800051EC190B02F0E7FD41EC100BB0EE408A58
:10319000F0EE608A51EC180B02F02AFF1549086026
:1031A00004E0002008490870FFF756FEBDEC068BCE
:1031B00010BD0000000C0240004400408860024046
:1031C000B4020020008800200C0200200000000053
:1031D0000000E0400000000000409F401C02002072
:1031E0002002002000000000008066402C02002029
:1031F000280200203002002000B58BB001210220FF
:1032000001F0D0F80121480601F0FFF801218806FD
:1032100001F0FBF809220C213A4801F0EEFF0922E7
:103220000D21384801F0E9FF4FF440500290022090
:103230008DF80C0002A9334801F054FF40208DF8AE
:10324000040001208DF8050000208DF80600012003
:103250008DF8070001A800F060F82B4801F0E0F9B4
:1032600008A801F001FB00208DF826008DF827004A
:103270008DF828008DF829008DF82A0001208DF89E
:103280002B0000208DF822008DF8230008208DF8F7
:10329000240003208DF82500ADF8200008A91A4865
:1032A00001F0D7F90E208DF81A0000208DF81B00D0
:1032B00001208DF81C000020ADF81000ADF81200C0
:1032C000ADF81400ADF81600ADF8180001208DF827
:1032D0001D0004A801F047FA012202210A4801F06A
:1032E00040FD0BB000BD10B50121074801F0A0FD65
:1032F00030B10121044801F034FE01200349087077
:1033000010BD00000004024000680040D001002011
:1033100033490143334A1160704770B500210023DF
:103320000F22C47824B32F4C246804F4E064C4F55D
:10333000E064C4F30721C1F10404E3B20A41447814
:103340009C40E1B28478144021430C07210E264CA6
:1033500005786155047804F01F050124AC40057818
:103360006D114FF0E02606EB8505C5F8004109E038
:10337000047804F01F040125A5401C4C0678761142
:1033800044F8265070BD1A4A0A400243154B1B1FD1
:103390001A60704739B1134A121D12680243114B6B
:1033A0001B1D1A6006E00F4A121D126882430D4B66
:1033B0001B1D1A607047042808D14FF0E0210969ED
:1033C00041F004014FF0E022116107E04FF0E021ED
:1033D000096921F004014FF0E022116170470000FB
:1033E0000000FA050CED00E000E400E080E100E000
:1033F00080FFFF1F10B50446FE48844208D101211A
:10340000084601F07BF80021012001F077F89DE0EB
:10341000B4F1804F08D10121084601F05EF8002187
:10342000012001F05AF891E0F348844208D10121CB
:10343000022001F052F80021022001F04EF885E050
:10344000EE48844208D10121042001F046F8002111
:10345000042001F042F879E0E948844208D10121D2
:10346000082001F03AF80021082001F036F86DE05C
:10347000E448844208D10121102001F02EF80021F7
:10348000102001F02AF861E0DF48844208D10121D0
:10349000202001F022F80021202001F01EF855E044
:1034A000DA48844208D10121022001F027F80021E6
:1034B000022001F023F849E0D548844209D10121D6
:1034C000080401F01BF800214FF4803001F016F8D9
:1034D0003CE0D048844209D10121480401F00EF8B3
:1034E00000214FF4003001F009F82FE0CA4884426F
:1034F00009D10121880401F001F800214FF4802056
:1035000000F0FCFF22E0C548844208D101214020A0
:1035100000F0E3FF0021402000F0DFFF16E0C0488C
:10352000844208D10121802000F0D7FF00218020B3
:1035300000F0D3FF0AE0BB48844207D10121801587
:1035400000F0CBFF0021A01500F0C7FF10BD002246
:103550000288A84B98420ED0AC4B98420BD0B0F1E9
:10356000804F08D0A44B984205D0A44B984202D07B
:10357000A34B984204D14FF68F731A404B881A43DD
:10358000A04B984207D0A04B984204D04FF6FF437F
:103590001A400B891A4302804B68C3620B8803856B
:1035A000944B984202D0994B984201D18B7A038672
:1035B0000123838270474FF0FF3141600021018079
:1035C00001814180817270470185828270470A467D
:1035D000002101884FF68F73194011430180704715
:1035E00041627047C16270470146486A70470146B0
:1035F000088D704721B1028842F00202028004E087
:1036000002884FF6FD731A400280704721B102888C
:1036100042F00402028004E002884FF6FB731A4075
:103620000280704721B1028842F08002028004E0EB
:1036300002884FF67F731A400280704702884FF667
:10364000F7731A40028002880A430280704702889A
:103650004FF6FF431A40028002880A4302807047F7
:1036600021B1028842F00102028004E002884FF694
:10367000FE731A400280704770B5002400220023B8
:10368000058C4FF6FE7635400584028C8388048BCA
:103690004FF68F752C40B51E2C400D882C43751E9F
:1036A0002A408D892A434D882A43524DA84202D090
:1036B000564DA84213D14FF6F7752A40CD892A43BB
:1036C0004FF6FB752A408D882A434FF6FF652B4045
:1036D0004FF6FF552B400D8A2B434D8A2B43838099
:1036E00004838D684563028470BD70B50024002298
:1036F0000023058C4FF6EF7635400584028C8388D5
:10370000048B48F6FF752C404FF6FF452C400D8882
:103710004FF6FF7606EA05252C434FF6DF752A4063
:103720008D8906EA05152A434D8806EA05152A43C0
:10373000304DA84202D0354DA8421DD14FF67F75BD
:103740002A40CD894FF6FF7606EA05152A434FF643
:10375000BF752A408D8806EA05152A434FF6FF35C6
:103760002B404FF2FF752B400D8A06EA85052B434F
:103770004D8A06EA85052B43838004838D68856323
:10378000028470BD70B5002400220023058C4FF622
:10379000FF6635400584028C8388848B4FF68F75D5
:1037A0002C404FF6FC752C400D882C434FF6FF55EE
:1037B0002A408D894FF6FF7606EA05252A434D8873
:1037C00006EA05252A430B4DA84202D00F4DA84218
:1037D00038D14FF2FF752A40CD894FF6FF7606EAC1
:1037E00005252A434FF6FF352A408D8806EA052530
:1037F0002A4319E000000140000400400008004096
:10380000000C004000100040001400400004014083
:1038100000400140004401400048014000180040C1
:10382000001C0040002000404EF6FF752B404DF676
:10383000FF752B400D8A06EA05152B434D8A06EAD3
:1038400005152B43838084838D68C563028470BD16
:1038500070B5002200230024058C4EF6FF7635401B
:103860000584038C8488828B48F6FF752A404FF6C6
:10387000FF452A400D884FF6FF7606EA05252A43C4
:103880004DF6FF752B408D8906EA05352B434D8893
:1038900006EA05352B43FE4DA84202D0FD4DA84255
:1038A00008D14BF6FF752C400D8A4FF6FF7606EADD
:1038B00085152C43848082838D680564038470BDE4
:1038C000002101804180818081608181C1810182EC
:1038D0004182704770B50346002000241846183016
:1038E00001258D40ACB21D8CA5431D8409B108296A
:1038F0000AD100EB610005684FF68F763540056010
:103900000568154305600FE00D1FC5F34E052844FB
:10391000056848F6FF763540056005684FF6FF7686
:1039200006EA02263543056070BD41637047816336
:103930007047C1637047016470470A460021018BDC
:103940004FF68F7319401143018370470A460021D7
:10395000018B48F6FF7319404FF6FF7303EA022309
:103960001943018370470A460021818B4FF68F73FC
:1039700019401143818370470A460021818B48F624
:10398000FF7319404FF6FF7303EA02231943818343
:1039900070470A460021018B4FF6F7731940114317
:1039A000018370470A460021018B4FF2FF731940D3
:1039B0004FF6FF7303EA02231943018370470A4657
:1039C0000021818B4FF6F7731940114381837047B3
:1039D0000A460021818B4FF2FF7319404FF6FF73A7
:1039E00003EA02231943818370470A460021018BB1
:1039F0004FF6FB7319401143018370470A460021BB
:103A0000018B4FF6FF3319404FF6FF7303EA022391
:103A10001943018370470A460021818B4FF6FB73DF
:103A200019401143818370470A460021818B4FF66C
:103A3000FF3319404FF6FF7303EA022319438183D2
:103A400070470A460021018B4FF67F7319401143DE
:103A5000018370470A460021018BC1F30E014FF626
:103A6000FF7303EA02231943018370470A460021CA
:103A7000818B4FF67F7319401143818370470A464B
:103A80000021818BC1F30E014FF6FF7303EA02237D
:103A90001943818370470A460021018C4FF6FD735C
:103AA00019401143018470470A460021018C4FF6EA
:103AB000F77319401143018470470A460021018CB5
:103AC0004FF6DF7319404FF6FF7303EA02131943F1
:103AD000018470470A460021018C4FF67F7319401C
:103AE0004FF6FF7303EA02131943018470470A4635
:103AF0000021018C4FF6FF5319404FF6FF7303EA84
:103B000002231943018470470A460021018C4FF2B9
:103B1000FF7319404FF6FF7303EA02231943018430
:103B200070470A460021018C4DF6FF7319404FF68D
:103B3000FF7303EA023319430184704730B5002351
:103B400001248C40A3B2048C9C430484048C02FAAC
:103B500001F5ADB22C43048430BD30B500230424FC
:103B60008C40A3B2048C9C430484048C02FA01F5BB
:103B7000ADB22C43048430BD828B4FF2FF331A4028
:103B80008283828B4FF6FF7303EA01231A438283F9
:103B90007047F0B50C461546002100220026078C20
:103BA0004EF6FF7C07EA0C070784818B028C4FF6E8
:103BB000FF7707EA043640F6FF4739404FF6FF77B4
:103BC00007EA052739434FF6FF7707EA03373943FA
:103BD00045F6FF773A4046F480573A4381830284A2
:103BE000F0BD828B4FF6F3731A408283828B0A43B7
:103BF00082837047F0B50C4615460021002200264E
:103C0000078C4FF6FF6C07EA0C070784818B028C48
:103C10004FF6FF7707EA04264FF60C7739404FF648
:103C2000FF7707EA03172F4339434FF2FF573A4014
:103C300046F480773A4381830284F0BD028B4FF2D1
:103C4000FF331A400283028B4FF6FF7303EA01230E
:103C50001A4302837047F0B50C4615460021002236
:103C60000026078C4FF6EF7C07EA0C070784018BD0
:103C7000028C4FF6FF7707EA041640F6FF473940FB
:103C80004FF6FF7707EA033739434FF6FF7703E034
:103C9000000001400004014007EA052739434FF6C0
:103CA0005F773A4046F010073A4301830284F0BD43
:103CB000028B4FF6F3731A400283028B0A4302838E
:103CC0007047F0B50C46154600210022068C4FF6D1
:103CD000FE773E400684018B028C4FF60C76314015
:103CE0007E1C06EA03162E4331434FF6F57632402A
:103CF00044F00106324301830284F0BD70B50546ED
:103D00000C46208850B92389A28861882846FFF78D
:103D1000D8FFE1882846FFF7CBFF25E0208804285C
:103D20000AD12389A28861882846FFF794FFE18899
:103D30002846FFF783FF17E0208808280AD1238947
:103D4000A28861882846FFF755FFE1882846FFF7DB
:103D500048FF09E02389A28861882846FFF719FFF8
:103D6000E1882846FFF708FF70BD002101804180EF
:103D7000012181800021C180018170472DE9F0413E
:103D800005460C4600260127608808B9022600E097
:103D90000026A088012801D1022700E00127208801
:103DA000A0B92389A28861882846FFF78AFFE188A5
:103DB0002846FFF77DFF23893A4631462846FFF71C
:103DC0004AFFE1882846FFF739FF13E02389A288DC
:103DD00061882846FFF73FFFE1882846FFF72EFF5E
:103DE00023893A4631462846FFF76BFFE18828468B
:103DF000FFF75EFFBDE8F0810146486B7047014662
:103E0000886B70470146C86B70470146086C704765
:103E10000A884B881A438B881A43CB881A430B892C
:103E20001A434B891A438B891A43A0F844207047E0
:103E30000021018041808180C18001814181818197
:103E4000704731B1B0F8442042F40042A0F8442059
:103E500005E0B0F84420C2F30E02A0F844207047F9
:103E600021B1828842F00402828004E082884FF609
:103E7000FB731A408280704721B1828842F00102B0
:103E8000828004E082884FF6FE731A408280704779
:103E90001AB183890B43838102E083898B43838139
:103EA00070478182704702460020138A0B4201D07E
:103EB000012000E000207047CA430282704730B5FD
:103EC0000246002000230024158A05EA0103958993
:103ED00005EA010413B10CB1012000E0002030BD5F
:103EE000CA430282704741EA0203A0F84830704793
:103EF0001AB183890B43838102E083898B438381D9
:103F0000704721B1828842F00802828004E08288F2
:103F10004FF6F7731A408280704701894FF6F872A6
:103F20001140018170470A46002101894FF68F73C5
:103F3000194011430181704730B504460D462946AA
:103F40002046FFF7F0FF208940F00700208130BDB8
:103F50002DE9F04104460D4616461F46602D06D158
:103F60003B46012231462046FFF775FE05E03B4601
:103F7000012231462046FFF7A4FE29462046FFF7DE
:103F8000D2FF208940F007002081BDE8F08130B5E4
:103F90000C4600210189C9B24FF6FF7505EA0325D9
:103FA000154325432943018130BD2DE9F0410546E4
:103FB0000E4617469846002443463A463146284660
:103FC000FFF7E5FF2C894FF6F870044044F0070432
:103FD0004FF68F70044044F070042C81BDE8F081EE
:103FE000F0B504460D4616461F463B463246294666
:103FF0002046FFF7CCFF208940F480402081F0BDAF
:1040000082884FF68F731A40828082880A438280AA
:10401000704702894FF6F8731A40028102890A43F9
:104020000281704702894FF67F731A40028102892C
:104030000A4302817047F0B50C4615461E46002122
:10404000002200230189028B038C4FF6F877394058
:1040500021434FF6FC473A4040F201173A434FF6EE
:10406000DD773B404FF6FF7707EA06172F433B43C8
:10407000018102830384F0BD21B1828842F0800275
:10408000828004E082884FF67F731A4082807047F6
:10409000A0F8501070470000FA48006840F0010096
:1040A000F84908600020F74908310860F5480068C1
:1040B000F5490840F3490860F448091D0860081FE5
:1040C000006820F48020091F08600020ED490C31B1
:1040D000086070470021EB4A921C1170114608706D
:1040E000704710B501460022002300204A11012A22
:1040F00002D1E44C236808E0022A03D1E14C703479
:10410000236802E0DF4C7434236801F01F020124AD
:1041100094401C4201D0012000E0002010BD38B5C1
:10412000002000900024002500BF3120FFF7D9FFB8
:1041300005460098401C00900098B0F5A06F01D093
:10414000002DF2D03120FFF7CCFF08B1012400E0B0
:104150000024204638BD01460020CA4A106820F0DD
:10416000F80040EAC10010607047C9490860704714
:104170000021C44A703211701170012802D0042845
:104180000AD104E00121BF4A7032117005E0052117
:10419000BC4A7032117000E000BF00BF7047BD49DB
:1041A0000860704770B5049C41EA82150126C6EB91
:1041B000530645EA0645054345EA0465B14E361DFA
:1041C000356070BDB24908667047820142EA0172EB
:1041D000AC4B84331A607047AD4988667047AC4970
:1041E000C864704702460020A64B0833186820F0C8
:1041F000EC6042EA01031843A24B08331860704791
:10420000024600209F4B0833186820F0784042EAAD
:10421000010318439B4B0833186070470146002088
:10422000984A0832106820F0030008431060704775
:1042300094480830006800F00C00704701460020E8
:10424000904A0832106820F0F00008431060704770
:10425000014600208B4A0832106820F4E0500843E1
:104260001060704701460020864A0832106820F42A
:10427000604040EAC10010607047F0B500210022A4
:1042800000240225002602237E4F08373F6807F0EE
:104290000C0121B1042905D0082937D105E07E4F52
:1042A000076036E07D4F076033E0764F3F1D3F6883
:1042B000C7F38056734F3F1D3F6807F03F036EB151
:1042C000764FB7FBF3F7DFF8BCC10CF1040CDCF858
:1042D00000C0CCF3881C07FB0CF40CE06E4FB7FB5E
:1042E000F3F7DFF8A0C10CF1040CDCF800C0CCF34C
:1042F000881C07FB0CF4634F3F1D3F68C7F3014761
:104300007F1C7D00B4FBF5F7076002E0624F076099
:1043100000BF00BF5B4F08373F6807F0F001090995
:104320005F4F7A5C0768D7404760564F08373F6851
:1043300007F4E051890A5A4F7A5C4768D740876092
:10434000504F08373F6807F46041490B544F7A5C7F
:104350004768D740C760F0BD002100F44072B2F555
:10436000407F0AD1474A0832116821F4F8114D4ABA
:1043700002401143434A08321160424A70321268C7
:10438000C0F30B031A433F4B70331A607047414927
:104390004439086070473F494039086070474249D6
:1043A0000860704739B1374A303212680243354BE2
:1043B00030331A6006E0334A303212688243314BA0
:1043C00030331A60704739B12E4A343212680243D2
:1043D0002C4B34331A6006E02A4A34321268824386
:1043E000284B34331A60704739B1264A3832126884
:1043F0000243244B38331A6006E0224A38321268EE
:104400008243204B38331A60704739B11D4A40321D
:10441000126802431B4B40331A6006E0194A4032CF
:1044200012688243174B40331A60704739B1154AFE
:10443000443212680243134B44331A6006E0114AB7
:104440004432126882430F4B44331A60704739B1CB
:104450000C4A1032126802430A4B10331A6006E00D
:10446000084A103212688243064B10331A607047B4
:10447000E1B1044A143212680243024B14331A6049
:1044800019E0000000380240FFFFF6FE1030002463
:1044900000004742800E47420024F400001BB70092
:1044A00034020020FFFCFF0F5C0147425B4A1268A8
:1044B00082435A4B1A60704739B1584A121D12682C
:1044C0000243564B1B1D1A6006E0544A121D126827
:1044D0008243524B1B1D1A60704739B14F4A0C3250
:1044E000126802434D4B0C331A6006E04B4A0C3203
:1044F00012688243494B0C331A60704739B1474AFE
:10450000103212680243454B10331A6006E0434AEA
:10451000103212688243414B10331A60704739B130
:104520003E4A3C32126802433C4B3C331A6006E080
:104530003A4A3C3212688243384B3C331A60704727
:1045400039B1364A403212680243344B40331A6064
:1045500006E0324A403212688243304B40331A60E0
:10456000704739B12D4A4432126802432B4B443311
:104570001A6006E0294A443212688243274B4433CA
:104580001A60704739B1254A4C3212680243234BF6
:104590004C331A6006E0214A4C32126882431F4BAA
:1045A0004C331A60704739B11C4A503212680243CA
:1045B0001A4B50331A6006E0184A50321268824390
:1045C000164B50331A60704739B1144AD21F127813
:1045D0000243124BDB1F1A7006E0104AD21F1278FA
:1045E00082430E4BDB1F1A7070470C486030006826
:1045F00040F0807009496031086070470146002032
:10460000064A083A12680A4201D0012000E0002060
:1046100070470249891F0870704700001438024033
:1046200010B50446FE48844209D101214806FFF72F
:1046300054FF00214FF00070FFF74FFF08E0012109
:104640008806FFF74AFF00214FF08060FFF745FF23
:1046500010BD30B5024600200023146824F0020487
:104660001460146844F00104146000E05B1C54689A
:1046700014F0010F03D1A3F57F44FF3CF6D1546839
:1046800014F0010F01D100206CE08C79012C04D1D1
:10469000146844F08004146003E0146824F080047B
:1046A0001460CC79012C04D1146844F040041460E7
:1046B00003E0146824F0400414600C7A012C04D147
:1046C000146844F02004146003E0146824F020040B
:1046D00014604C7A012C04D1146844F01004146066
:1046E00003E0146824F0100414608C7A012C04D1C7
:1046F000146844F00804146003E0146824F008040B
:104700001460CC7A012C04D1146844F004041460C1
:1047100003E0146824F0040414608C78A407CD78B6
:1047200044EA05640D7944EA05444D7944EA0554A8
:104730000D886D1E2C43D461146824F001041460AC
:10474000002300E05B1C546814F0010F03D0A3F5B4
:104750007F44FF3CF6D1546814F0010F01D00020D3
:1047600000E0012030BD10B50021837A012202FA59
:1047700003F1AC4A126842F00102AA4B1A60A94A3E
:104780001C3212688A43A74B1C331A60027BCAB9D9
:10479000A44A0C3212688A43A24B0C331A60428836
:1047A000C38842EA03439F4A4032847A42F8343055
:1047B0000288838842EA03439A4A4032847A02EBB1
:1047C000C4025360027B012A19D1964A0C32126846
:1047D0000A43944B0C331A604288038842EA03432D
:1047E000904A4032847A42F83430C288838842EA60
:1047F00003438C4A4032847A02EBC4025360C27A8B
:104800003AB9884A121D12688A43864B1B1D1A60EA
:1048100006E0844A121D12680A43824B1B1D1A606F
:10482000028932B97F4A143212688A437D4B1433AD
:104830001A600289012A06D17A4A143212680A43A0
:10484000784B14331A60427B012A06D1754A1C3218
:1048500012680A43734B1C331A60724A126822F0C2
:104860000102704B1A6010BD00218171C17101728B
:1048700041728172C1728170C17003210171022184
:1048800041710121018070476649096841F00101C9
:10489000644A11601146096843F60E729143614AF9
:1048A00011601146096841EA00211160114609684A
:1048B00021F001011160704721B1026842F4803299
:1048C000026003E0026822F4803202607047E1B1C6
:1048D000026842F0800202604FF4C272125842F441
:1048E00080734FF4C27213504FF4CA72125842F4DC
:1048F00080734FF4CA7213504FF4D272125842F4BC
:1049000080734FF4D27213501BE0026822F08002D1
:1049100002604FF4C272125822F480734FF4C272D4
:1049200013504FF4CA72125822F480734FF4CA72B3
:1049300013504FF4D272125822F480734FF4D27293
:104940001350704710B502460020936803F080634F
:10495000B3F1806F00D110E0936803F00063B3F10E
:10496000006F01D1012008E0936803F08053B3F198
:10497000805F01D1022000E00420042879D002F5F4
:10498000C07303EB00131B6803F0010402F5C0734E
:1049900003EB00131C600B7A7BB94B7A0C8843EA5B
:1049A000445302F5C07404EB00142468234302F559
:1049B000C07404EB0014236010E00B7A4C6843EAE7
:1049C000C4034C7A234302F5C07404EB001424683A
:1049D000234302F5C07404EB001423608B7A03F0C8
:1049E0000F038B7202F5C07303EB00135B6823F0B7
:1049F0000F0402F5C07303EB00135C6002F5C07393
:104A000003EB00135B688C7A234302F5C07404EB5C
:104A1000001463608B7B1C064B7B44EA034403E079
:104A200000640040006600400B7B44EA0323CC7A1C
:104A3000234302F5C07404EB0014A3608B7C1C06B6
:104A40004B7C44EA03440B7C44EA0323CC7B2343A2
:104A500002F5C07404EB0014E36002F5C07303EBCD
:104A600000131B6843F0010402F5C07303EB00134D
:104A70001C6010BD10B50246002021B1012907D0ED
:104A800002290FD109E09368F74C03EA04000BE018
:104A90009368F64C03EA040006E09368F44C03EADA
:104AA000040001E0002000BF00BFF24C031BA04245
:104AB00016D007DC80B16FF08063C3180ED0022BD4
:104AC00018D111E0B3F5007F10D0EB4C1B1909D0C1
:104AD000B3F5003F0ED10BE002200DE000200BE00B
:104AE000002009E0002007E0012005E0012003E0AC
:104AF000012001E0002000BF00BF10BD21B101294D
:104B000007D002290FD109E0826842F0800282605A
:104B10000AE0826842F40042826005E0826842F462
:104B20000002826000E000BF00BF704710B500F5D2
:104B3000D87303EB01131B6803F004031372137A99
:104B400053B900F5D87303EB01131B6840F2FF74EF
:104B500004EA5353136009E000F5D87303EB011323
:104B60001B686FF0604404EAD303536000F5D87308
:104B700003EB01131B6803F00203537200F5D873B3
:104B800003EB01135B6803F00F03937200F5D87316
:104B900003EB01135B681B0AD37400F5D87303EBB6
:104BA00001139B68D37200F5D87303EB01139B6864
:104BB0001C0A147300F5D87303EB01139B681C0CDB
:104BC000547300F5D87303EB01139B681B0E9373AA
:104BD00000F5D87303EB0113DB68D37300F5D873CA
:104BE00003EB0113DB681C0A147400F5D87303EBA4
:104BF0000113DB681C0C547400F5D87303EB01132C
:104C0000DB681B0E937421B9C36843F02003C360B3
:104C100003E0036943F02003036110BD21B9C268BA
:104C200042F02002C26003E0026942F02002026109
:104C300070470246002019B9D36803F0030006E06C
:104C4000012903D1136903F0030000E0002070473D
:104C500010B502460B4600204FF6FF71BBB9146831
:104C600024F0020444F00104146000E0491E54687A
:104C700004F00304012C01D00029F7D1546804F09A
:104C80000304012C01D0002032E0012030E0012B90
:104C900013D1146824F00304146000E0491E546822
:104CA00014F0030F01D00029F8D1546814F0030F59
:104CB00001D000201CE001201AE0022B17D114685B
:104CC00024F0010444F00204146000E0491E54681A
:104CD00004F00304022C01D00029F7D1546804F039
:104CE0000304022C01D0002002E0012000E000209B
:104CF00010BD014600200A6822F0010242F00202C3
:104D00000A604A6802F00302022A00D101207047BB
:104D100001464FF6FF7200200B6823F002030B6080
:104D200000E0521E4B6803F00203022B01D1002A5F
:104D3000F7D14B6803F00203022B00D0012070472B
:104D4000014600208A6902F0700070470146002089
:104D50008A69100E7047014600208A69C2F3074035
:104D600070471AB143690B43436102E043698B43C7
:104D70004361704710B50246002011F4700F08D04F
:104D80009369C1F31304234201D001202DE00020D8
:104D90002BE011F0807F08D05368C1F31304234245
:104DA00001D0012021E000201FE011F0006F08D0A9
:104DB0009368C1F31304234201D0012015E00020C1
:104DC00013E011F0007F08D0D368C1F3130423422D
:104DD00001D0012009E0002007E01369C1F31304AA
:104DE000234201D0012000E0002010BD0022234B0F
:104DF000994202D10023836111E0C1F3130211F043
:104E0000007F01D0C2600AE011F0806F01D0026122
:104E100005E011F0006F01D0826000E04260704751
:104E2000024600200A4201D0012000E00020704725
:104E300070B504460D4600266069284271D0B5F56C
:104E4000807F68D01CDC082D41D006DC012D2CD0E1
:104E5000022D30D0042D7ED133E0102D3DD0202DF9
:104E600041D0402D77D144E0030000040003000846
:104E700000000310000100080001FFF77000F0308F
:104E8000B5F5004F61D009DCB5F5007F4AD0B5F526
:104E9000806F4DD0B5F5006F5DD150E0B5F5803F26
:104EA0002DD0B5F5003F56D12FE0A0685549FFF74A
:104EB000B7FF064651E0E0680321FFF7B1FF064661
:104EC0004BE0E0680821FFF7ABFF064645E0E068ED
:104ED0001021FFF7A5FF06463FE020690321FFF7F9
:104EE0009FFF064639E020690821FFF799FF064633
:104EF00033E020691021FFF793FF06462DE060683C
:104F00000821FFF78DFF064627E060681021FFF7B4
:104F100087FF064621E0A0690121FFF781FF0646D1
:104F20001BE01BE0A0690221FFF77AFF064614E0B0
:104F3000A0690421FFF774FF06460EE00BE0A069AC
:104F40007021FFF76DFF064607E060680421FFF758
:104F500067FF064601E0002600BF00E0002630465D
:104F600070BDB1F5007F3AD00FDC202928D006DCD7
:104F700001291CD004291DD0082940D11DE0402959
:104F800021D0B1F5807F3AD126E0B1F5004F31D084
:104F900006DCB1F5806F25D0B1F5006F2FD124E08C
:104FA000B1F5803F12D0B1F5003F28D111E0154A8C
:104FB000826025E00822C26022E01022C2601FE069
:104FC000082202611CE01022026119E008224260FE
:104FD00016E01022426013E00422426010E0042236
:104FE00042600DE0042242600AE000228261042255
:104FF000426005E0002282610422426000E000BFBE
:1050000000BF70470101010010B504468C4884427E
:1050100008D101210846FFF71AFA00210120FFF705
:1050200016FA5EE08748844208D101210220FFF78A
:105030000EFA00210220FFF70AFA52E08248844269
:1050400008D101210420FFF702FA00210420FFF714
:10505000FEF946E07D48844208D101210820FFF78F
:10506000F6F900210820FFF7F2F93AE07848844287
:1050700008D101211020FFF7EAF900211020FFF7E5
:10508000E6F92EE07348844208D101212020FFF781
:10509000DEF900212020FFF7DAF922E06E48844291
:1050A00008D101214020FFF7D2F900214020FFF76D
:1050B000CEF916E06948844208D101218020FFF72B
:1050C000C6F900218020FFF7C2F90AE06448844253
:1050D00007D101218015FFF7BAF90021A015FFF7CC
:1050E000B6F910BDF0B50A4600210023002400BF28
:1050F0003DE0012505FA01F3156805EA03049C4229
:1051000034D105684F000326BE40B54305601579CC
:105110004E00B5400668354305601579012D02D073
:105120001579022D16D185684F000326BE40B54380
:10513000856055794E00B540866835438560456881
:1051400001268E40B5434560456896798E40B6B2DB
:1051500035434560C5684F000326BE40B543C56072
:10516000D5794E00B540C6683543C560491C102945
:10517000BFD3F0BD4FF6FF71016000210171417195
:105180008171C171704708B54FF480320092009A66
:105190000A430092009AC261C161009AC261C26969
:1051A0000092C269009208BD0246002013690B42BA
:1051B00001D0012000E0002070470146086980B25C
:1051C00070470246002053690B4201D0012000E0E5
:1051D000002070470146486980B2704701837047DC
:1051E000418370470AB1018300E041837047416108
:1051F000704742694A4042617047F0B5002300247D
:105200004D07ED0E02FA05F3CE1000F1200555F81A
:1052100026504E07F70E0F26BE40B543CF1000F1C3
:10522000200646F82750CE1000F1200555F82650EC
:1052300045EA0304CE1000F1200545F82640F0BDF4
:10524000000002400004024000080240000C02403E
:10525000001002400014024000180240001C0240EE
:105260000020024010B50446F748844208D10121CD
:105270001020FFF743F900211020FFF73FF93EE02F
:10528000F248844209D101214804FFF726F90021A0
:105290004FF40030FFF721F931E0ED48844209D1A5
:1052A00001218804FFF719F900214FF48020FFF74E
:1052B00014F924E0E748844209D10121C804FFF72A
:1052C0000CF900214FF40020FFF707F917E0E2483E
:1052D000844209D101210805FFF7FFF800214FF4AE
:1052E0008010FFF7FAF80AE0DC48844207D1012178
:1052F0002020FFF703F900212020FFF7FFF810BD61
:105300002DE9FF4705460E460024A14600BFA046F2
:10531000B08900B100BF2C8A24F44054F0880443C3
:105320002C82AC8941F20C608443B08831890843F7
:10533000718908430443AC81AC8A24F44074B08979
:105340000443AC826846FEF798FFBF48854202D00E
:10535000C248854202D1DDF80C9001E0DDF80890EA
:10536000A88910F4004F08D009EBC90000EB091020
:1053700031684900B0FBF1F707E009EBC90000EB29
:10538000091031688900B0FBF1F76420B7FBF0F039
:1053900004012009642101FB1078A88910F4004F52
:1053A00008D0322000EBC800B0FBF1F000F007009D
:1053B000044308E0322000EB08106421B0FBF1F058
:1053C00000F00F0004432C81BDE8FF874FF4165115
:1053D000016000218180C18001810C214181002177
:1053E0008181704710B502460020108A20F4706059
:1053F0000B884C8823438C882343CC882343184351
:10540000108210BD0021018041808180C1807047E1
:1054100021B1828942F40052828104E082894DF6F2
:10542000FF731A4082817047028B02F47F4202832D
:10543000028B0A430283704721B1828942F4004201
:10544000828103E08289C2F30E028281704721B11A
:10545000828A42F40062828204E0828A4FF2FF7301
:105460001A4082827047C1F3080282807047014669
:105470008888C0F308007047028A4FF6F0731A401C
:105480000282028A0A430282704721B1828942F075
:105490000202828104E082894FF6FD731A40828104
:1054A000704782894FF2FF731A40828182890A43D2
:1054B00082817047028A4FF6DF731A400282028AA5
:1054C0000A430282704721B1028A42F4804202827A
:1054D00004E0028A4BF6FF731A400282704781890A
:1054E00041F001018181704721B1828A42F00802B6
:1054F000828204E0828A4FF6F7731A4082827047F4
:10550000028BD2B20283028B42EA012202837047ED
:1055100021B1828A42F02002828204E0828A4FF620
:10552000DF731A408282704721B1828A42F01002F2
:10553000828204E0828A4FF6EF731A4082827047BB
:10554000828A4FF6FB731A408282828A0A438282E1
:10555000704721B1828A42F00202828204E0828A8C
:105560004FF6FD731A40828270471AB1838A0B434B
:10557000838202E0838A8B4383827047F0B50346BF
:105580000024002600250020A1F510676A3F00D105
:1055900000BF1846C1F3421401F01F06012707FAA5
:1055A00006F5012C01D10C3004E0022C01D11030A1
:1055B00000E014301AB107682F43076002E0076863
:1055C000AF430760F0BD02460020B1F5007F00D177
:1055D00000BF13880B4201D0012000E0002070477B
:1055E00001F40072B2F5007F00D100BFCA4302800F
:1055F000704770B502460024002300250020A1F565
:1056000010666A3E00D100BFC1F3421501F01F03CE
:10561000012606FA03F3012D02D19689334006E0F4
:10562000022D02D1168A334001E0968A33400C12D3
:10563000012606FA04F41688344013B10CB1012097
:1056400000E0002070BD0000001001400044004058
:1056500000480040004C0040005000400014014051
:1056600010B500220023A1F510646A3C00D100BFF0
:105670000A1201249440A3B2DC43048010BD000050
:105680000CB50020019000906448006840F4803020
:105690006249086000BF6148006800F40030009073
:1056A00000980028F7D05D48006810F4003F02D051
:1056B0000120009001E0002000900098012845D1D1
:1056C00056484030006840F08050544940310860EE
:1056D0005348006840F48040514908604F48083002
:1056E00000684E49083108600846006840F40040F0
:1056F00008600846006840F4A05008604948091F47
:105700000860081F006840F08070091F086000BF33
:105710004248006810F0007FFAD040F2056042492C
:1057200008603E480830006820F003003B4908311B
:1057300008600846006840F00200086000BF374873
:105740000830006800F00C000828F8D10CBD10B536
:105750003648006840F4700034490860FFF790FF55
:105760004FF0006031498039086010BD70B50020ED
:105770000022022300240221284D08352D6805F05F
:105780000C0020B1042806D0082834D107E0284DA9
:10579000284E356033E0284D264E35602FE01F4DF2
:1057A0002D1D2D68C5F380541C4D2D1D2D6805F051
:1057B0003F0154B1204DB5FBF1F5184E361D36684A
:1057C000C6F3881605FB06F209E0194DB5FBF1F5A5
:1057D000124E361D3668C6F3881605FB06F20F4DCD
:1057E0002D1D2D68C5F301456D1C6B00B2FBF3F553
:1057F000104E356003E00E4D0E4E356000BF00BF09
:10580000064D08352D68C5F303150C4E705D094D26
:105810002D68C540074E356070BD0000003802405D
:10582000007000400C544007003C024088ED00E04E
:105830000024F40044020020001BB70048020020AE
:10584000016821F001010160002101604160816077
:10585000C160016121214161DA49884204D13D21C1
:10586000D84A103A91608CE0D6491831884205D167
:105870004FF47461D34A103A916082E0D1493031DB
:10588000884205D14FF47411CE4A103A916078E005
:10589000CC494831884205D14FF07461C94A103A69
:1058A00091606EE0C7496031884204D1C649C54A5B
:1058B000103AD16065E0C3497831884204D1C349C8
:1058C000C04A103AD1605CE0BE499031884204D1B0
:1058D000BF49BC4A103AD16053E0BA49A831884266
:1058E00005D14FF03D51B74A103AD16049E0B9496E
:1058F000884204D13D21B74A083A116041E0B549D8
:105900001831884205D14FF47461B24A083A1160E7
:1059100037E0B0493031884205D14FF47411AD4AB7
:10592000083A11602DE0AB494831884205D14FF06B
:105930007461A84A083A116023E0A64960318842A0
:1059400004D1A149A34A121F11601AE0A14978317C
:10595000884204D19D499F4A121F116011E09D4960
:105960009031884204D19A499A4A121F116008E086
:105970009849A831884204D14FF03D51954A121FF1
:105980001160704710B500220268934B1A40CC6832
:105990000B6823434C6923438C692343CC6923431D
:1059A0000C6A23434C6A23438C6A23434C6B234386
:1059B0008C6B23431A430260426922F00702D1E94B
:1059C0000B3423431A4342610B6943604B68836085
:1059D0008B68C36010BD0021016041608160C160BF
:1059E000016141618161C161016241628162C162A3
:1059F000016341638163704721B1026842F0010293
:105A0000026003E0026822F001020260704721B1E7
:105A1000026842F40042026003E0026822F400429D
:105A20000260704721B1026842F02002026003E088
:105A3000026822F020020260704741607047014610
:105A4000486880B2704722B1036843F400230360C2
:105A500003E0036823F4002303600161704721B170
:105A6000026842F48022026003E0026822F480228D
:105A7000026070470AB1016100E0C16070470146F1
:105A800000200A6812F4002F01D0012000E000205D
:105A90007047014600200A6812F0010F01D0012072
:105AA00000E000207047014600204A6902F03800FB
:105AB000704730B503460A4600200024454DAB42EE
:105AC00002D24049103901E04249103912F0005F1A
:105AD00001D04C6800E00C68404D2C40144201D0CD
